:020000040100F9
:100000003741000213010100B70100029381010092
:10001000B7250001938505DC37260001130606DEAF
:10002000B70600029386060039A083A2050023A02C
:10003000560091059106E3EAC5FEB70500029385D7
:100040000502370600021306060321A023A00500BF
:100050009105E3EDC5FEB7000001E7804007B7005A
:100060000001E7804007B7200001E78060BA730015
:100070005010F5BF8280000000000000000000006A
:100080000000000000000000000000000000000070
:100090000000000000000000000000000000000060
:1000A0000000000000000000000000000000000050
:1000B0000000000000000000000000000000000040
:1000C0006F004000197106C20AC40EC612C816CAD3
:1000D0001ACC1ECE22D026D22AD42ED632D836DA48
:1000E0003ADC3EDEC2C0C6C2CAC4CEC6D2C8D6CA78
:1000F000DACCDECEE2D0E6D2EAD4EED6F2D8F6DA28
:10010000FADCFEDE97000000938080098290924026
:100110002241B2414242D2426243F24302549254DB
:100120002255B2554256D2566257F2570648964863
:100130002649B649464AD64A664BF64B065C965C5B
:10014000265DB65D465ED65E665FF65F096173004A
:10015000203001A04CC5B5471CC137072000B706A9
:10016000400021A05C4DF58F81E75C4DF98FFDDBF0
:1001700082800CD55C4D93F70704EDDF828083C746
:10018000050081CF138715001CD55C4D93F707043C
:10019000EDDF834707000507E5FB82808280397128
:1001A0000947930700F802C802CA02D002D20C081D
:1001B0000A85BD4606DE02CC02D402D62308D10051
:1001C000230AE1003ACEA301F1022302F102EF007B
:1001D000D00AF25021618280930700005CD11CD5C7
:1001E0005CD51CD95CD982800111AE8722CCB28546
:1001F0002A843E8506CE26CA4AC84EC652C456C276
:100200003289EF10C0390C40AA89EF10A014032ADC
:100210004402832AC401AA845285D685EF100001C6
:10022000634AA000832A84015285D685EF104009D5
:10023000635405002322540344D823243403232881
:100240002403F24062444249B249224A924A268536
:10025000D24405618280411106C6EF10206BB707BA
:10026000000283A58700EF10E00EEF104074B7077F
:10027000000203A6070083A64700EF00F034EF104A
:10028000607CB24041018280011122CC06CEB707CA
:100290000500216702C402C6D8CF5841B707000144
:1002A000938707F07D8FC167B716004093870710CB
:1002B0002A84938606806303F70081463745080049
:1002C0008D478A85130505403EC236C0592C8347A9
:1002D00044001D476360F702372700018A071307B0
:1002E00087C9BA979C438A85374508008287896702
:1002F0003EC0852CF2406244056182808567938709
:1003000007803EC0B92CF240624405618280B70785
:10031000004093870702130505403EC09924F24030
:10032000624405618280B707004093870708130580
:1003300005403EC03D24F240624405618280914701
:100340003EC00524F240624405618280C1473EC040
:10035000092CF240624405618280930700083EC088
:100360000924F240624405618280930700203EC068
:10037000CD2AF24062440561828018411C5F93E7F8
:1003800007101CDF828018411C5F93F7F7EF1CDF1A
:1003900082801C41BD89985F419B98DF985FD98D11
:1003A0008CDF82801C41920593F5F50F985F1377DF
:1003B000F7F098DF985FD98D8CDF82801841116645
:1003C000130606F0545F5C5F8583F18F7176130628
:1003D000F60FF18ED58F93E727005CDF82801841FE
:1003E0001166130606F0545F5C5F8583F18F7176AA
:1003F0001306D60FF18ED58F5CDF8280184171769F
:100400001306D60F5C5FF99B5CDF545F5C5FF18E77
:1004100011668583130606F0F18FD58F5CDF82802D
:100420001841916671764C5F5C5F938606F0130607
:10043000F60F8583F18DF58FCD8F93E717005CDF85
:100440004C5F5C5F6D8E8583F58FD18F93E72700BE
:100450005CDF8280144183474500F175D05E93854F
:10046000F508D85E6D8E9207D18F1166058313064D
:1004700006F0718FD98FDCDE8280411122C406C65E
:100480002A8419351C409166138706C0D8DFCC5FDB
:10049000D85F7176938606F01308F60F0583758F83
:1004A000B3F505014D8F13671700D8DFC85FD85F1C
:1004B0009305F608337605010583758F518F136711
:1004C0002700D8DFC85F03474400D05FE98D1207DB
:1004D00005824D8FF18E558FD8DF034654000547B6
:1004E000834564006309E6026387E502D85F71759E
:1004F000D45F1305F50F0A06698F518F1166858247
:10050000130606F0F18EB2402244558F8E054D8FB2
:10051000D8DF41018280371705008326C7C0370521
:100520003000C98E2326D7C0D1B71C410547F8C378
:1005300082801C4123A0070482801C410547B8C368
:10054000828018413C47FDDF82801C41E84742051C
:100550004181828018413C47FDDF68474205418167
:100560008280944137470800930707408A068982B2
:1005700094C16300F510B75708009387078063069E
:10058000F500630FE50C0545828037130500930ED7
:1005900003C2130EC3C1130383C10147854F0D4F1F
:1005A0009142CDCA931317003398EF00B3177F0021
:1005B00033F6060193C7F7FF51CA411122C6C04165
:1005C00003260300937834007D8EB3987800336659
:1005D00016012320C3006308540619E023240501F3
:1005E00003260E0083A8C50003A885007D8EB3985E
:1005F0007800336616012320CE0083A80E00331640
:100600007800B3F71701D18F23A0FE000507B3D7F9
:10061000E640B9C3931317003398EF00B3177F0078
:1006200033F6060193C7F7FF75D2C04103260300D6
:10063000937834007D8EB3987800336616012320BA
:10064000C300E31C54F82326050159BF0507B3D79F
:10065000E640A9FB01458280324401454101828088
:1006600037130500930E83C0130E43C0130303C05A
:100670002DB737130500930E43C1130E03C11303A7
:10068000C3C021BF1C411395250009817D8D3335E1
:10069000A000828019E24CC182800CC182801C497A
:1006A000BD8D0CC98280135745009D4763EFE70855
:1006B000B707000283A8870213182700BD46B39628
:1006C000060113C6F6FF3376160123A4C70203A65C
:1006D000870233150501758D518D23A4A70283A6CA
:1006E0008702B757080013F6150023A2D7C09386D8
:1006F00007C08547B397E7000DE69CD213F72500A6
:100700000DC737570800232AF7C0918937570800CB
:100710008DC52322F7C23757080001452326F7C0AD
:100720008280DCCE13F7250069FF37570800232CA1
:10073000F7C0918937570800E9FD2324F7C23757DE
:10074000080001452326F7C082800545828011817B
:100750009D4763E2A7048546B7570800B396A600F5
:1007600023A8D7C037060002832586020A053D4725
:100770003317A7001347F7FF6D8F2324E6020327E3
:100780008602014523A2E7C023ACD7C023A0D7C26D
:1007900023A4D7C2828005458280B757080003A7EB
:1007A00087C09357450005453315F500798D3335DE
:1007B000A0008280B757080003A707C011818547B2
:1007C000B397A700F98F33D5A7008280B7570800E9
:1007D0001307F00F23A6E7C2828091476300F50458
:1007E00063EEA70085476305F5028947631EF5029E
:1007F000370706005C4BF99B5CCB8280A1476318EE
:10080000F500370706001C4BF99B1CCB82808280C9
:10081000370706005C4BF59B5CCB828037070600F0
:100820001C4BF59B1CCB8280828091476303F504AF
:1008300063EFA70085476307F50289476312F50454
:10084000370706005C4B93E717005CCB8280A1471B
:100850006319F500370706001C4B93E717001CCB04
:1008600082808280370706005C4B93E727005CCBD1
:100870008280370706001C4B93E727001CCB828041
:1008800082808547AA86630BF5068947630FF500CA
:10089000054591C28280B7060600DC4A7D771307C2
:1008A000F73FF98FDCCA014582809305004037A7E6
:1008B0000700130707123706050011A021C71C5EA9
:1008C0007D17F58FE5DFB7060600DC4A7D77130755
:1008D000F73FF98FCD8FDCCA411102C6B2469307AC
:1008E00030061307300663C8D700B24785073EC6F7
:1008F000B247E35CF7FE014541018280856593853F
:10090000058075B70D45828091476307F50663EB57
:10091000A7048547630EF5048947631DF504A146C6
:10092000014537A70700130707123706050011A076
:1009300039C71C5E7D17F58FE5DF8A05C98D41112A
:100940004CD202C6B246930730061307300663C87E
:10095000D700B24785073EC6B247E35CF7FE0145C4
:1009600041018280A1476317F5008946094555BFBB
:10097000914645BF0545828085460D455DB748D205
:100980000D4582808547AA86630EF5068947630F69
:10099000F500054591C28280B70606009C4A7D7726
:1009A0001307F73FF98F9CCA0145828085659385BF
:1009B000058037A70700130707123706050011A0A7
:1009C00029C71C5E7D17F58FE5DF370706001C4B36
:1009D000FD769386F63FF58FCD8F1CCB85471CCFD8
:1009E000411102C6B246930730061307300663C8AA
:1009F000D700B24785073EC6B247E35CF7FE014524
:100A000041018280930500406DB70D45828031C55C
:100A100085476304F50005458280054637A7070032
:100A200013070712B706050011A015CB9C5E7D17B2
:100A3000F18FE5DF4111C8D602C6B24693073006F2
:100A40001307300663C8D700B24785073EC6B247D2
:100A5000E35CF7FE0145410182800946C1B70D45BF
:100A60008280B707050088C38280B7070500C8C326
:100A70008280B707050088C78280B7070600D84B79
:100A8000D4450546719BD8CB984B4111719B98CBAF
:100A900003C735010A07D8CB03C745010A0798CB1E
:100AA0006387C6220947638BE614054863850622DF
:100AB00083C745001147638FE7186367F71205473F
:100AC000638BE7120947A14601436394E71237A7F6
:100AD000070083A88500130707123706050019A031
:100AE000630307201C5E7D17F58FFDDB8A08B3E8E2
:100AF00068002322160302C4A24693073006130798
:100B0000300663C8D700A24785073EC4A247E35C0E
:100B1000F7FE814803C70501B7070500944D98C348
:100B200003C615010547D0C303C6250190C7638DD1
:100B3000E61889476385F612054E638D061603A3F2
:100B4000C501630C0310854705476311F30405468F
:100B500037A7070013070712B706050019A0630897
:100B600007189C5E7D17F18FFDDB23A6660202C08D
:100B70008246930730061307300663C8D7008247C2
:100B800085073EC08247E35CF7FE014783C7050047
:100B900093F6170099E637060600544A93E62600B6
:100BA00054CA93F6270099E637060600544A93E69E
:100BB000160054CA93F6470099E637060600144A11
:100BC00093E6260014CAA18B99E7B70606009C4A53
:100BD00093E717009CCA2320050123221501232433
:100BE000C50158C541018280214789460943E380F8
:100BF000E7EE854805B791460543D1BD130800408F
:100C000037A70700130707123706050011A065C7AD
:100C10001C5E7D17F58FE5DFB7060600DC4A7D77A1
:100C20001307F73FF98FB3E70701DCCA02C6B246E4
:100C3000930730061307300663C8D700B24785070D
:100C40003EC6B247E35CF7FE014883C74500114743
:100C5000E395E7E685460D439DBD0946D5BD056391
:100C60001303038037A70700130707123706050091
:100C700011A041C31C5E7D17F58FE5DF3707060025
:100C80001C4BFD769386F63FF58FB3E767001CCBD0
:100C900085471CCF02C292469307300613073006E1
:100CA00063C8D700924785073EC29247E35CF7FED0
:100CB000014E71B5B70606009C4A7D771307F73FD2
:100CC000F98F9CCA014EA5BD1303004061BF0568A2
:100CD0001308088035B7D84BFD769386F63F758F9D
:100CE000D8CB01489DB7232266028D4825B50D4714
:100CF00071BD0D4EA9B50D4865BB1841B70705007C
:100D00009346F7FF94CBD8C758419346F7FF94CF4B
:100D1000D8CB18459346F7FF94D3D8CF82803707B6
:100D20000040B70700C09306F7FFE98F758D638415
:100D3000E70237070080638AE70091C382803707A4
:100D400005005C47C98F5CC78280370705005C4F90
:100D5000C98F5CCF8280370705005C4BC98F5CCBA5
:100D6000828037070040B70700C09306F7FFE98F7E
:100D7000758D6384E70237070080638AE70091C3BB
:100D80008280370705001C4BC98F1CCB8280370738
:100D900005001C53C98F1CD38280370705001C4FE8
:100DA000C98F1CCF8280B7070500DC5305478D8BA8
:100DB000F9176377F7003755E8011305058082803E
:100DC0002165130505D08280797156CA93DA4501F1
:100DD00022D426D24ECE52CC5AC89394C50006D601
:100DE0004AD05EC693FAFA7F2A84328BB689B180E4
:100DF00013DAF50163860A249307F07F638CFA28DF
:100E00008E049357D501C58FB7048000DD8C13196C
:100E10003500938A1AC0814B13D749011394C90036
:100E20001377F77F318093D9F90163070728930778
:100E3000F07F630CF72C0E049357DB01C18F37044E
:100E400080005D8C930617C093173B0001451397F4
:100E50002B00B69A498FA94633463A0193851A006A
:100E600063C1E630894663C3E62C7D17854663FE81
:100E7000E62C4168930EF8FF9356090193D80701B9
:100E80003379D90133FFD701B307E9033383E6038D
:100E900013D50701338728031A973A95338E160323
:100EA00063736500429E135705013375D501B3F78F
:100EB000D70113580401B37ED40142053E95B30F08
:100EC000D903B387D60333092803338306033E9936
:100ED00093D60F01CA9663F4F600C1673E93C163CF
:100EE00093D706019382F3FF3E93B3F75600B3FF07
:100EF0005F0013D90401B3F25400C207FE97338494
:100F000028033E97B30F5F02B388580293D60F01B0
:100F1000330FE903FA98C69663F3E6011E94B38390
:100F20005E0213DF0601C164229F1384F4FFE18E89
:100F3000C206B3FF8F00B69FB30ED90393D6030149
:100F4000B308280333085802769836986373D8019B
:100F5000A698B3768800B3F38300C20672979E9674
:100F60003693B337F7009A97B336D30033B367009D
:100F700013580801B3E66600C2963308F7013E9F96
:100F80003337E8007A973334FF00333FE7013364A7
:100F9000E401369446949357770126045D8C9317A9
:100FA0009800C98FB337F000135878012607B3E7CC
:100FB0000701D98F37070001618F630F071A13D715
:100FC0001700858B5D8F9317F401D98F0580938669
:100FD000F53F6355D01A13F7770001CF13F7F700E9
:100FE00011456308A700138747003335F7002A949B
:100FF000BA8737070001618F19C7370700FF7D17D0
:10100000798C938605401307E07F6348D720131738
:10101000D4018D835D8F0D8032043180D206B250B1
:10102000C18E22547E06B3E7C60092540259F2499B
:10103000624AD24A424BB24B3A85BE8545618280B4
:1010400033E9A4006301090685C82685EF00F03165
:10105000130755FFF547930685FF998FB394D40086
:10106000B357F400C58FB314D400930AD0C02689B7
:10107000B38AAA40BE8445B3EF00302FAA871387F6
:101080005701F14613050502E3D6E6FCE117B31755
:10109000F400E1BF33E9A400630B09002A89930A35
:1010A000F07F8D4B95BB8144814A854BB5B381441C
:1010B000930AF07F894B8DB3B3676401B9CF1DC428
:1010C0002285EF00902A930655FF7547930785FF09
:1010D000158F3314F4003357EB00418F3314FB00AA
:1010E0009306D0C0A287898E3A848DB35A85EF00CB
:1010F000D027AA8793865701714713050502E35647
:10110000D7FCE1173317FB00E1BFB367640191CB54
:10111000DA879306F07F0D451DBB014481460545E6
:101120003DB301449306F07F094515B38546B39658
:10113000E60013F706530DEF13F806246315080CA9
:1011400093F68608E38706D24E8609476307E50CC7
:101150000D476300E50C0547E31BE5E60144014745
:10116000ADA8BD466307D70AAD465286E30ED7FC4D
:101170002684CA875E85D1BFD68591BD054589CABB
:10118000158D13078003E34BA7FC7D476349A70434
:101190009385E54133D7A700B397B700B337F00085
:1011A000B315B400CD8FD98F3354A40013F7770053
:1011B00001CF13F7F70091466308D7001387470064
:1011C000B336F7003694BA8737078000618F39EB62
:1011D0001317D4018D835D8F0D80814635BD055772
:1011E000158F130800023357E4008146630605019A
:1011F0009385E543B316B400DD8EB336D000B367F4
:10120000D700014465B7370408009306F07F014614
:1012100021B5370408000147CDBF014401479306BB
:10122000F07FDDBB014401478546FDB337078000F1
:101230007D17935675013376A7009357F50193F602
:10124000F60F13D575011308F00F6D8F1375F50F99
:10125000FD81639F060125E26306D5000545B1C700
:101260007D558280795531E3E39AB7FE014582804E
:10127000631C0501795515EB91E215CAE390B7FEA1
:101280007D5585C73E85828091CE69D9E398B7FCAC
:10129000E346D5FCE3C6A6FEE362C7FC01456376E0
:1012A000E600F9BF79F919E355FA828019E67D5510
:1012B000EDDD2E85828079558280E38FB7FC79BF82
:1012C000370780007D17935675013376A700935733
:1012D000F50193F6F60F13D575011308F00F6D8F16
:1012E0001375F50FFD81639F060125E26306D500A6
:1012F0000545B1C77D558280094531E3E39AB7FEC4
:1013000001458280631C0501094515EB91E215CA70
:10131000E390B7FE7D5585C73E85828091CE69D921
:10132000E398B7FCE346D5FCE3C6A6FEE362C7FC40
:1013300001456376E600F9BF79F919E355FA828031
:1013400019E67D55EDDD2E85828009458280E38F8B
:10135000B7FC79BF01114AC81359750126CA4EC698
:1013600056C29314950006CE22CC52C41379F90FBD
:10137000AE8AA5809359F501630409129307F00F13
:10138000630CF9128E04B7070004DD8C130919F8F9
:10139000014A93D77A0113949A0093F7F70F2580A7
:1013A00093DAFA01638407121307F00F638BE712D5
:1013B0000E0437070004598C938717F801473E99AC
:1013C00093172A00D98FA94633C55901130619006E
:1013D00063CDF614894663C0F612FD17854663FA9D
:1013E000F612C1681388F8FF13D70401935704015C
:1013F000B3760401B3F40401B3859602B306D702B1
:1014000013D405013307F702B3879702B6973E94CA
:101410006373D4004697B3770401C207B3F505019F
:10142000AE97939667004180B336D000E9833A9433
:10143000D58F1A045D8CB7070008E18F6381071010
:101440009357140005885D8C1307F607635BE00E65
:101450009377740099C79377F40091466383D7001C
:101460001104B7070008E18F99C7B70700F8FD1707
:101470007D8C130706089307E00F63CEE7109357A0
:101480003400F2406244A6075E07A5835D8F7E05A7
:10149000D2444249B249224A924A598D056182801A
:1014A0009DC02685D9259307B5FF1309A0F8B394ED
:1014B000F4003309A940E9BD1309F00F0D4AE39A7E
:1014C00004EC094AF9B50149054AE1B515C0228580
:1014D000692D9307B5FF3314F4009307A0F8898FA3
:1014E000F1BD9307F00F0D47E31B04EC0947C1BDA5
:1014F00081470547E9B58546B397F60093F607534C
:1015000085EE93F60724D1E293F78708E38B07EC87
:10151000568589476301F7088D476308F7068547B5
:10152000E314F7F281470147A9BFBD46638FD70493
:10153000AD464E85E38ED7FC26845287D9BF4A86B6
:1015400021B7854619C7998EED4581470147E3CA02
:10155000D5F21306E609B356D4003314C40033346D
:101560008000B3E7860013F7770019C713F7F70079
:1015700091466303D7009107370700047D8F8D8361
:10158000E30107F081470547EDBDB70740001307AA
:10159000F00F0145FDB581471307F00FDDB53707A3
:1015A00080004111935775017D1713D6750126C22E
:1015B0004AC0B376A70013F9F70F06C6B377B70092
:1015C00022C41376F60F1308F00F9354F501FD8132
:1015D000139536008E07631B0607130719F099CB86
:1015E000AE866397B41E63080714631A09081309CB
:1015F000F00F39A293C615006393D41E630D071232
:10160000E30709FE1309F00F370700047D8F630E0F
:10161000072C05091307F00F01446308E90013D4F0
:101620003700B707801FFD177D8C931779013707A7
:10163000807F26042580F98FB240C18F2244139504
:10164000F401024992445D8D4101828093C61500E8
:101650003307C9406390D412635AE00805E66382F9
:1016600007289306F7FF89EAAA97370700047D8FBA
:10167000094925E7054915A0631C0701AA87130935
:10168000F00F21A863010927B7060004D58FBA8699
:101690006D47635ED7009307150013F777002DD7CA
:1016A00013F7F7009146E301D7F69107B1BF13078F
:1016B0000002158F3397E70033D6D7003337E000A9
:1016C000B367E600AA97370700047D8F79D705092D
:1016D0001307F00F0144E30AE9F43707007E93F69D
:1016E00017007D178583F98FD58F45BF29C7B306AE
:1016F00026416306090037070004598D11A8368971
:1017000049DD9306F9FFADD21307F00FE307E9F8BF
:101710006D476355D7008507328941B7130700022B
:10172000158F3317E500B355D5003337E0004D8FE3
:10173000BA97328949BF130719009376E70F9DE2E4
:10174000631F090039D96380071AAA973707000475
:101750007D8F21D7370700FC7D17F98F21BF05D179
:1017600091DF0DA29306F00F630CD718AA9785831B
:101770003A8925B7635CE00629E663840716930679
:10178000F7FF89E6B307F54005491DA0E30807EF19
:101790006D460547634CD60013070002158F33973B
:1017A000E70033D6D7003337E000518FB307E54069
:1017B0003704000433F78700E30107EE7D147D8CC6
:1017C000CDA063020913B7060004D58FBA86C9B746
:1017D00025CF630B09021309F00FAE847DBD2DC721
:1017E000630809021309F00FB68439BD31CFB30580
:1017F000264163160904B6842E89E30005EA9305A1
:10180000F9FF89E9898F49B7AE841309F00FF5B75D
:10181000B684E5BF1307F00FE301E9E8ED4605479D
:1018200063CCB600130700020D8F3317E500B356E3
:10183000B5003337E000558F998F328995BF370750
:101840000004598DB684D9BF130719001377E70F29
:1018500021E36314090201E5C5CBB6843DBDC1C7D0
:101860003304F54037070004618F19C3898FF5B73A
:10187000A287E31404E281444DBBE31305EEB68472
:10188000E39F07DE81441309F00F3704400071BB6A
:101890003304F54037070004618F15CB3384A7402C
:1018A000B6842285D9246D153314A400634425031E
:1018B00033052541050513070002098FB357A4001E
:1018C0003314E40033348000C18F0149F9B371F857
:1018D000014955B7B70700FCFD173309A940E18F4F
:1018E0006DBBAA8771B5AA874DBB13D43700930788
:1018F000F00FE31CF9D2E30A04D237044000A5BF7D
:101900001309F00F014415B30144B5B7411122C4C6
:1019100006C62A84814719CD892C9307E009898F4F
:10192000130760096341F7022147630FE50661155C
:101930003314A4002604258013957701B240418D0D
:10194000224441018280130790096357F70413076B
:10195000B50195463317E400898E3337E0003354E0
:10196000D400598C370700FC7D1793767400618F83
:1019700091C63D8891466303D4001107B706000461
:10198000F98E81CAB70700FCFD177D8F9307F00918
:10199000898F1354370079BF95461307B5FFE303CA
:1019A000D5FC3314E4007DBF9307600961B713577A
:1019B00075011377F70F41119307170022C426C250
:1019C0001314950006C693F7E70F25809354F5018D
:1019D0008DC793573400130707387604B207B183D5
:1019E00052071395F4015D8FB240B367A7002285BB
:1019F00022449244BE854101828015EB814779DC07
:101A00002285A522A94763CEA700AD47898F13077A
:101A10005501B357F4003314E40013079038098FCD
:101A200075BF930755FFB317F4000144FDB7814715
:101A300019C493573400370708007604D98F130769
:101A4000F07F69BF1397C50013D84501258313782C
:101A5000F87F9357D501D98F130718001377E77FC5
:101A6000FD811316350055C3930608C81307E00F10
:101A70006348D70E634DD006255763C6E60E37057B
:101A8000800079475D8D158FFD4763CCE702130811
:101A900028C83357E600331606013336C000331525
:101AA0000501498E518F93777700A5EF9357370043
:101AB0008146A607A583DE06DD8E1395F501558DBB
:101AC0008280F957958F93080002B357F50081463D
:101AD00063061701130828CAB3160501D18EB33661
:101AE000D000D58F13F7770021E78D83D1B7131777
:101AF00065008E073337E0005D8F7582518F9377D5
:101B0000770095EF935737006DB7630E0804D18FB8
:101B10009306F00FD9DF81459306F00FB707400019
:101B200049BF9377F7009146E382D7F8814639A8F9
:101B300013F7F7009146E30AD7FA91077DB71376BA
:101B4000F700114593573700E305A6F6110737064E
:101B50000004798E9357370029DE8506814791BFAF
:101B60009306F00FE5BF8146D5BFC1676376F502E6
:101B70009337051093C717008E07130700021D8FB8
:101B80003355F5009707000093874713AA9703C5BD
:101B900007003305A740828037070001C147E36E85
:101BA000E5FCE147D9BF797106D622D426D24AD0C6
:101BB0004ECE52CC56CA5AC8EFE06FDEB7070002CD
:101BC000375408001385070223A08702EFE0FF8A3D
:101BD00037170500832707C03746080093E707300B
:101BE0002320F7C091679387B7F35CDC37070500C4
:101BF000DD675CCF930790085CCB5C4793E7870079
:101C00005CC7544F93E6460054CF1307002018C614
:101C10001307004018C6130700102322E4C0114721
:101C2000232AE4C02320E4C22326E4C0F36704305F
:101C3000856793870780F3A74730B707000203AB98
:101C40008700B707000203A9070083A94700B70769
:101C500000021307000083AAC700B70700023AC2B8
:101C600003AA07013AC43AC6854464C068444205E1
:101C700041816939DA85EFF0EFED153B4A86CE8672
:101C8000EFF08F94C1332AC4A2455685093AD28514
:101C9000EFF04FEC2AC6D1BF0E030001260300016E
:101CA0003E0300014C0300015A0300016A030001D6
:101CB000FC020001EE020001000102020303030323
:101CC00004040404040404040505050505050505CC
:101CD00005050505050505050606060606060606AC
:101CE0000606060606060606060606060606060694
:101CF000060606060606060607070707070707077C
:101D00000707070707070707070707070707070763
:101D10000707070707070707070707070707070753
:101D20000707070707070707070707070707070743
:101D3000070707070707070708080808080808082B
:101D40000808080808080808080808080808080813
:101D50000808080808080808080808080808080803
:101D600008080808080808080808080808080808F3
:101D700008080808080808080808080808080808E3
:101D800008080808080808080808080808080808D3
:101D900008080808080808080808080808080808C3
:101DA00008080808080808080808080808080808B3
:101DB00008080808080808080000000000000000E3
:101DC000333333333333F33F000080390000803F37
:101DD0000000003F000000000000000000000000C4
:0400000501000000F6
:00000001FF
