:020000040200F8
:100000003741000213010100B72100029381014032
:10001000B705000293850522370600021306062263
:10002000B72600029386064039A083A2050023A0CC
:10003000560091059106E3EAC5FEB72500029385B7
:100040000540372600021306064021A023A0050024
:100050009105E3EDC5FEB7000002E7804007B70059
:100060000002E7804007B7000002E780A018730095
:100070005010F5BF8280000000000000000000006A
:100080000000000000000000000000000000000070
:100090000000000000000000000000000000000060
:1000A0000000000000000000000000000000000050
:1000B0000000000000000000000000000000000040
:1000C0006F004000197106C20AC40EC612C816CAD3
:1000D0001ACC1ECE22D026D22AD42ED632D836DA48
:1000E0003ADC3EDEC2C0C6C2CAC4CEC6D2C8D6CA78
:1000F000DACCDECEE2D0E6D2EAD4EED6F2D8F6DA28
:10010000FADCFEDE970000009380000582909240AA
:100110002241B2414242D2426243F24302549254DB
:100120002255B2554256D2566257F2570648964863
:100130002649B649464AD64A664BF64B065C965C5B
:10014000265DB65D465ED65E665FF65F096173004A
:10015000203001A0B7070500938707409C5393F711
:1001600007029DC3374708001C4B93C707201CCBD1
:10017000B75708001307000823A6E7C2B707050012
:100180001307000223ACE74082804111B707000249
:100190009387070073905730B70705005D67D8CF86
:1001A0001307B008D8CBD84713678700D8C737479D
:1001B00008009306002014C79306004014C7A166E8
:1001C0002326D74037570800B70600302322D7C070
:1001D00093060008232AD7C02320D7C22326D7C0DE
:1001E0001307000223A4E740F36704308567938771
:1001F0000780F3A74730374708001C4B93C70740D9
:100200001CCB02C63247B79704009387F73DE3C47F
:10021000E7FEB24785073EC6F5B7000000000000C4
:0400000502000000F5
:00000001FF
